:1000000098C00000BCC00000BAC00000B8C000002A
:10001000B6C00000B4C00000B2C00000B0C0000014
:10002000AEC00000ACC00000AAC00000A8C0000024
:10003000A6C00000A4C00000A2C00000A0C0000034
:10004000ECC400009CC000009AC0000098C00000F2
:1000500096C0000094C0000092C0000090C0000054
:10006000AFC300008CC0000007634236B79BD8A71F
:100070001A39685618AEBAAB558C1D3CB7CC5763CD
:10008000BD6DEDFD753EF6177231BF000000803F7B
:1000900008000000BE922449123EABAAAA2ABECD97
:1000A000CCCC4C3E00000080BEABAAAAAA3E000009
:1000B0000000BF000000803F000000000008417801
:1000C000D3BB4387D1133D190E3CC3BD4282AD2B38
:1000D0003E68EC8276BED98FE1A93E4C80EFFFBE30
:1000E00001C4FF7F3F000000000000000000250069
:1000F00028002B0004040404040404040202020285
:1001000002020303030303030102040810204080DA
:100110000102040810200102040810200000000859
:1001200000020100000304070000000000000000BE
:10013000570511241FBECFEFD8E0DEBFCDBF11E0C1
:10014000A0E0B1E0E6EDF7E102C005900D92A43425
:10015000B107D9F721E0A4E4B1E001C01D92A33FAB
:10016000B207E1F710E0C9E9D0E003C02197FE0132
:10017000A5D6C839D107D1F7C0D40C94E90B40CF2C
:1001800090E0FC01E45EFE4F2491FC01E85FFE4F2D
:100190003491FC01EC50FF4FE491EE23B1F12223A6
:1001A00039F1233091F038F42130A9F0223001F5F3
:1001B00084B58F7D12C0273091F02830A1F0243013
:1001C000B9F4809180008F7D03C0809180008F778B
:1001D000809380000DC084B58F7784BD09C0809165
:1001E000B0008F7703C08091B0008F7D8093B00006
:1001F000F0E0EE0FFF1FE651FF4FA591B4918FB7CE
:10020000F894EC913E2B3C938FBF089585ED80933D
:10021000BC008091BC0084FDFCCF1092BB0108950E
:1002200040919501262F30E0240F311D21323105F8
:10023000DCF42091BB012430C9F4FC0180E090E0A3
:10024000861758F4309195012191DC01AD58BE4FCD
:10025000A30FB11D2C930196F3CF80919501680FE8
:100260006093950180E0089581E0089582E008950B
:10027000089581E090E03091720120917101321770
:1002800010F480E090E09195819591090895809116
:10029000720190917101891730F48F5F8093720120
:1002A00080E090E008958FEF9FEF089580917101B5
:1002B00090E020917201821B91090895CF92DF9204
:1002C000EF92FF920F931F93CF93DF937C01262F22
:1002D000972F8A0180917001882391F0C62FD72F24
:1002E0006E01C40ED51ECC15DD0569F06991D701EC
:1002F000ED91FC910190F081E02DC7010995F3CFBC
:10030000642F822F8DDFC801DF91CF911F910F9154
:10031000FF90EF90DF90CF900895CF93DF931F92DF
:10032000CDB7DEB76983209170012223D1F02091EF
:100330006F01203240F021E030E0FC013383228362
:1003400080E090E014C080916E01E82FF0E0E25B65
:10035000FE4F998190838F5F80936E0180936F0130
:1003600004C061E0CE0101965BDF81E090E00F9078
:10037000DF91CF910895CF93FC01C48121E02093B8
:100380007001C0934D0110926E0110926F01838530
:10039000682B81EE91E0C1DF80916F01813208F01E
:1003A00046C09091BB019111FCCF92E09093BB01AC
:1003B00091E09093BD019FEF9093BA011092DF01FD
:1003C0008093DE01AEE4B1E02EEB31E0F9019E2F27
:1003D000921B981718F49D919193F9CF1092E00118
:1003E0008091E001CC0FC82BC093E0018091BC014B
:1003F000813061F41092BC018091E0018093BB00D8
:100400008091BC0083FDF8CF85EC01C085EE809320
:10041000BC008091BB018230E1F38091BA018F3F33
:1004200031F08091BA01803211F08091BA011092BE
:100430006E0110926F0110927001CF9108950F9389
:100440001F93CF938C01C62F96DF6C2F6460C80179
:1004500092DF6C2F6B7FC8018EDF83EC90E00197F9
:10046000F1F7CF911F910F9108950F931F93CF93A1
:100470008C01C62F607FE3DF80E1C89FB0011124AB
:10048000C801CF911F910F91DACFCF92DF92EF92F7
:10049000FF920F931F93CF93DF9300D0CDB7DEB7BA
:1004A0008C01677088E0689FB00111246064C80106
:1004B00049835A83DADF4981C42E5A81D52E7601C9
:1004C000A8E0EA0EF11CF60161916F01D801ED91EF
:1004D000FC910190F081E02DC8010995CE14DF0454
:1004E00091F70F900F90DF91CF911F910F91FF9097
:1004F000EF90DF90CF900895CF93DF93CDB7DEB725
:1005000028970FB6F894DEBF0FBECDBF9C0188E0E0
:10051000E6E0F1E0DE01119601900D928A95E1F797
:10052000F9018085841710F44FEF480FFE013196D2
:10053000E40FF11DE40FF11D9081690F6068C9019E
:1005400028960FB6F894DEBF0FBECDBFDF91CF91D6
:100550008CCF0F931F93CF938C01C62F607F616068
:100560006EDF80E1C89FB00111246160C80167DFC0
:1005700081E090E0CF911F910F9108953FB7F894DB
:100580008091490190914A01A0914B01B0914C0199
:1005900026B5A89B05C02F3F19F00196A11DB11DDE
:1005A0003FBFBA2FA92F982F8827820F911DA11D19
:1005B000B11DBC01CD0142E0660F771F881F991F56
:1005C0004A95D1F708958F929F92AF92BF92CF92A2
:1005D000DF92EF92FF926B017C01D0DF4B015C0157
:1005E000C114D104E104F104E9F0C8DFDC01CB015E
:1005F00088199909AA09BB09883E9340A105B1054C
:1006000078F321E0C21AD108E108F10888EE880EDB
:1006100083E0981EA11CB11CC114D104E104F104B3
:1006200021F7DECFFF90EF90DF90CF90BF90AF909B
:100630009F908F900895CF92DF92EF92FF920F9349
:100640001F93CF93DF936C017A018B01C0E0D0E060
:10065000CE15DF0589F0D8016D918D01D601ED91A0
:10066000FC910190F081E02DC6010995892B11F4D0
:100670007E0102C02196ECCFC701DF91CF911F917F
:100680000F91FF90EF90DF90CF900895089580E054
:1006900090E008950E94E50B6115710579F0FB016A
:1006A00001900020E9F73197AF01461B570BDC01A1
:1006B000ED91FC910280F381E02D099480E090E0BF
:1006C00008954F925F926F927F928F929F92AF9216
:1006D000BF92CF92DF92EF92FF920F931F93CF932F
:1006E000DF93CDB7DEB7A1970FB6F894DEBF0FBE8C
:1006F000CDBF8C016B01770FEE08FF08F7FE2DC010
:10070000DC01ED91FC910190F081E02D6DE2099505
:100710005C0122273327A9012C193D094E095F09E5
:1007200019A2FE01B1967F019AE0492E512C612C4D
:10073000712CCA01B901A30192018AD3605DD7016E
:100740006E937D01211531054105510591F7BD01DC
:10075000C801A2DF8A0D9B1D1CC0A701960119A22A
:10076000FE01B1967F018AE0882E912CA12CB12C3C
:10077000CA01B901A50194016BD3605DD7016E93E5
:100780007D01211531054105510591F7BD01C801D4
:1007900083DFA1960FB6F894DEBF0FBECDBFDF9109
:1007A000CF911F910F91FF90EF90DF90CF90BF906E
:1007B000AF909F908F907F906F905F904F90089533
:1007C0001F920F920FB60F9211242F933F934F93C6
:1007D0005F936F937F938F939F93AF93BF93EF93A9
:1007E000FF938091B900887F803609F49CC068F53A
:1007F000883209F45BC090F4803109F454C038F4B5
:10080000882309F4F6C0883009F44DC0F5C088315A
:1008100009F44CC0803209F45DC0EEC0803409F4A4
:1008200068C048F4803309F455C0883309F0E4C047
:100830008093BA01D8C0803509F44FC0883509F4D7
:100840005DC0883409F0D8C0D6C0883909F4C7C063
:10085000A8F4883709F467C038F4883609F463C00F
:10086000803709F460C0C8C0883809F4B8C080393E
:1008700009F45FC0803809F0BFC05BC0803B09F459
:1008800086C038F4803A09F466C0883A09F47FC01B
:10089000B3C0803C09F4A7C0883C09F4A4C0883BDD
:1008A00009F48AC0A9C08091E00110C09091DF01D5
:1008B0008091DE01981770F5E091DF0181E08E0FE5
:1008C0008093DF01F0E0E254FE4F80818093BB0013
:1008D00085EC86C08093BA018EC0E091DF0181E093
:1008E0008E0F8093DF018091BB00F0E0E254FE4F59
:1008F00080839091DF018091DE016EC0E091DF0185
:1009000081E08E0F8093DF018091BB00F0E0E25424
:10091000FE4F80838091BD0181116DC081E0809385
:10092000BC0184EA61C083E08093BB011092B901ED
:10093000CFCF8091B901803208F051C0E091B90168
:1009400081E08E0F8093B9018091BB00F0E0E75603
:10095000FE4F8083BDCF85EC8093BC001092BB011D
:100960008091B901803230F4E091B901F0E0E756AE
:10097000FE4F10826091B90170E0E0919701F09113
:10098000980189E991E009951092B90135C084E098
:100990008093BB011092960110929501E091930112
:1009A000F0919401099580919501811105C081E034
:1009B0008093950110927301E091960181E08E0F72
:1009C00080939601F0E0ED58FE4F80818093BB004C
:1009D0009091960180919501981708F479CF85E858
:1009E0008093BC0009C085EC8093BC001092BB01D1
:1009F00003C01092BA010ADCFF91EF91BF91AF9151
:100A00009F918F917F916F915F914F913F912F9126
:100A10000F900FBE0F901F9018951F920F920FB658
:100A20000F9211242F933F938F939F93AF93BF9374
:100A30008091450190914601A0914701B0914801F4
:100A40003091440123E0230F2D3720F40196A11D9E
:100A5000B11D05C026E8230F0296A11DB11D2093EC
:100A600044018093450190934601A0934701B093C0
:100A700048018091490190914A01A0914B01B091A8
:100A80004C010196A11DB11D8093490190934A012B
:100A9000A0934B01B0934C01BF91AF919F918F9167
:100AA0003F912F910F900FBE0F901F901895E1EE80
:100AB000F1E01382128288EE93E0A0E0B0E084833C
:100AC0009583A683B78382E291E0918380838CE251
:100AD00090E04ED5FC01108E178A84E391E0968B4E
:100AE000858B87E2818F80E1868F82E0878F10A2DD
:100AF000F093EE01E093ED010895CF93DF93CDB72E
:100B0000DEB761970FB6F894DEBF0FBECDBF789405
:100B100084B5826084BD84B5816084BD85B5826002
:100B200085BD85B5816085BD80916E0081608093B3
:100B30006E0010928100809181008260809381001C
:100B4000809181008160809381008091800081602C
:100B5000809380008091B10084608093B100809187
:100B6000B00081608093B00080917A0084608093AF
:100B70007A0080917A00826080937A0080917A0076
:100B8000816080937A0080917A00806880937A00F7
:100B90001092C100E090ED01F090EE0188E0EEE0EF
:100BA000F1E0DE01199601900D928A95E1F788E057
:100BB000E6E1F1E0DE01119601900D928A95E1F7F0
:100BC00087010B5E1F4F10927201109271011092FB
:100BD0006E0110926F011092BB0181E08093BD0104
:100BE0001092BC0182E1CCDA83E1CADA8091B900CB
:100BF0008E7F8093B9008091B9008D7F8093B9007A
:100C000088E48093B80085E48093BC00F701128EDD
:100C1000878D823010F098E0928FF701858F62E324
:100C200070E080E090E0CFDCF70160A1C801A3DBB9
:100C300068EE73E080E090E0C6DC60E3C801FFDBB3
:100C40002BE4C22E26E4D22EC6010197F1F760E311
:100C5000C801F5DBC6010197F1F760E3C801EFDBDE
:100C600083E592E00197F1F760E2C801E8DBF70164
:100C7000628D6062C801F9DB84E0F701838F6CE06C
:100C8000C801F3DB61E0C801F0DB3BE3C32E3FE1C9
:100C9000D32EC6010197F1F782E0F701848F66E059
:100CA000C801E3DB62E0C801E0DBC6010197F1F7B0
:100CB00088E0F70180A360E0C8015DDBAE01475F1B
:100CC0005F4F61E0C801E1DBAE014F5F5F4F62E063
:100CD000C801DBDB61E0C801C8DBC6010197F1F7A1
:100CE00040E060E0C80108DC6CE371E0C801D4DCDE
:100CF00040E062E0C80100DC6EEC74E0C801E1DCB9
:100D000040E065E0C801F8DB6EE371E0C801C4DCD7
:100D100061E471E0C801D5DC40E06BE0C801ECDBC8
:100D200060E471E0C801B8DC20E0422F4595622FF5
:100D30006170862F880F680F645FC801298BDCDB28
:100D40006EE371E0C801A8DC29892F5F243069F7C0
:100D5000CC24C394D12C93EF292E93E0392EFF2479
:100D6000FA94FC0CB6010D2C000C880B990BDFD00B
:100D70009B01AC0160E070E080E291E43CD14B016A
:100D80005C016F2D0F2C000C770B880B990BCFD0CB
:100D90009B01AC0160E070E080E291E42CD12B017A
:100DA0003C01C501B40190D0AB01BC01C101BA0145
:100DB0003CD04C01C301B20187D0AB01BC01C401DE
:100DC000BA0133D0672B51F04F2D45956F2D6170CF
:100DD000635FC80191DB61E0C801BBDBFFEFCF1AA5
:100DE000DF0A85E0C816D10409F0B9CF41E060E020
:100DF000C80182DB62E471E0C8014EDC41E062E0E0
:100E0000C8017ADB62E870E0C8015BDC62E0C8011F
:100E1000A0DB60EB71E0C80154DC00E010E00115DC
:100E20001105E9F30E940000FACF97FB072E16F494
:100E3000009406D077FD08D02DD007FC05D03EF4F5
:100E4000909581959F4F0895709561957F4F089576
:100E5000A1E21A2EAA1BBB1BFD010DC0AA1FBB1FBE
:100E6000EE1FFF1FA217B307E407F50720F0A21B30
:100E7000B30BE40BF50B661F771F881F991F1A949D
:100E800069F760957095809590959B01AC01BD01C7
:100E9000CF010895AA1BBB1B51E107C0AA1FBB1FAE
:100EA000A617B70710F0A61BB70B881F991F5A95F6
:100EB000A9F780959095BC01CD010895EE0FFF1F15
:100EC0000590F491E02D099404D06894B1118DC07F
:100ED000089570D088F09F5790F0B92F9927B75197
:100EE000A0F0D1F0660F771F881F991F1AF0BA95EE
:100EF000C9F712C0B13081F077D0B1E0089574C065
:100F0000672F782F8827B85F39F0B93FCCF38695E3
:100F100077956795B395D9F73EF490958095709540
:100F200061957F4F8F4F9F4F0895E89409C097FBBD
:100F30003EF490958095709561957F4F8F4F9F4FB0
:100F40009923A9F0F92F96E9BB279395F6958795F4
:100F500077956795B795F111F8CFFAF4BB0F11F4B7
:100F600060FF1BC06F5F7F4F8F4F9F4F16C088235E
:100F700011F096E911C0772321F09EE8872F762F94
:100F800005C0662371F096E8862F70E060E02AF0D5
:100F90009A95660F771F881FDAF7880F96958795C1
:100FA00097F9089557FD9058440F551F59F05F3F2A
:100FB00071F04795880F97FB991F61F09F3F79F07B
:100FC00087950895121613061406551FF2CF4695FD
:100FD000F1DF08C0161617061806991FF1CF86957F
:100FE0007105610508940895E894BB276627772763
:100FF000CB0197F90895FA01EE0FFF1F30962105F6
:10100000310599F16115710561F48038BFE39B07E3
:1010100049F168949038810561F08038BFEF9B07F3
:1010200041F0992342F5FF3FE1053105210511F11A
:10103000E8940894E795D901AA2329F4AB2FBE2F91
:10104000F85FD0F310C0FF5F70F4A695E0F7F739B2
:1010500050F019F0FF3A38F49F779F930CD00F901F
:1010600007FC905808953EF049C060E070E080E8C9
:101070009FE308954FE79F775F934F933F932F939D
:10108000A7D02F913F914F915F9115D105C019F4D1
:101090000EF02EC0A9CF32C08DDFC8F39638C0F74E
:1010A00007F80F92E8942BE33AEA48EB5FE711D197
:1010B0000F920F920F924DB75EB70F92C9D0E8E62C
:1010C000F0E01FD04F915F91EF91FF91E595EE1FFA
:1010D000FF1F49F0FE57E0684427EE0F441FFA95C2
:1010E000E1F74195550B3BD00F9007FE2FC00895B7
:1010F00097F99F6780E870E060E008959FEF80ECCB
:101100000895DF93CF931F930F93FF92EF92DF9297
:101110007B018C01689405C0DA2EEF01D8D0FE0166
:10112000E894A5912591359145915591AEF3EF0144
:1011300037D1FE019701A801DA9479F7DF90EF909B
:10114000FF900F911F91CF91DF9108959B01AC010A
:1011500060E070E080E89FE376C1CACFDCC12ADF9F
:10116000E8F39923D9F3940F511DBBF391505040EC
:1011700094F059F0882332F0660F771F881F915042
:101180005040C1F79E3F510544F7880F911D969539
:10119000879597F908955F3FACF0983E9CF0BB2788
:1011A000869577956795B79508F4B1609395C1F7E3
:1011B000BB0F58F711F460FFE8CF6F5F7F4F8F4F81
:1011C0009F4FE3CF12CF0EF0A6C198CF689490CF77
:1011D000F1DEC8F39923D1F3C6F3DF93CF931F93C6
:1011E0000F93FF92C92FDD2788232AF02197660FDE
:1011F000771F881FDAF720E030E040E85FEB9FE3DD
:10120000883920F0803E30F021968F77B8D0E0E921
:10121000F0E003C0B4D0EDEBF0E073DF8B01BE0172
:10122000EC01FB2E6F5771097595771F880B990B91
:101230007EDE28E132E741E35FE349D0AF2D98013C
:10124000AE01FF900F911F91CF91DF91A9D07FC187
:10125000FA01DC01AA0FBB1F9B01AC01BF5728F4A8
:1012600022273327442750781FC0B75188F4AB2F6B
:101270000024469537952795011CA395D2F30020AD
:1012800069F0220F331F441FB395DAF30DD076C0F7
:1012900061307105A0E88A07B94630F49B01AC01C2
:1012A0006627772788279078309621F0208331832E
:1012B0004283538308950BD04AC13BD128F040D1DB
:1012C00018F0952309F014CF19CF11248ECE6ADEC1
:1012D000A0F3959FD1F3950F50E0551F629FF00149
:1012E000729FBB27F00DB11D639FAA27F00DB11DA2
:1012F000AA1F649F6627B00DA11D661F829F22272B
:10130000B00DA11D621F739FB00DA11D621F839FB1
:10131000A00D611D221F749F3327A00D611D231F87
:10132000849F600D211D822F762F6A2F11249F57D5
:1013300050408AF0E1F088234AF0EE0FFF1FBB1FF8
:10134000661F771F881F91505040A9F79E3F510597
:1013500070F0CECE4ACE5F3FECF3983EDCF386953C
:1013600077956795B795F795E7959F5FC1F7FE2B42
:10137000880F911D9695879597F908955058BB272A
:10138000AA270ED0E4C0D5D030F0DAD020F031F466
:101390009F3F11F41EF4B2CE0EF4E095E7FBA8CE09
:1013A000E92F00DE80F3BA176207730784079507F9
:1013B00018F071F49EF518CE0EF4E0950B2EBA2FAE
:1013C000A02D0B01B90190010C01CA01A00111244B
:1013D000FF27591B99F0593F50F4503E68F11A16F7
:1013E000F040A22F232F342F4427585FF3CF469588
:1013F00037952795A795F0405395C9F77EF41F16AA
:10140000BA0B620B730B840BBAF09150A1F0FF0F73
:10141000BB1F661F771F881FC2F70EC0BA0F621F5F
:10142000731F841F48F4879577956795B795F7954F
:101430009E3F08F0B3CF9395880F08F09927EE0FE1
:101440009795879508950CD082C07AD040F071D0DE
:1014500030F021F45F3F19F04BCE5111C6CD4ECE86
:10146000A1DD98F39923C9F35523B1F3951B550BCF
:10147000BB27AA2762177307840738F09F5F5F4F67
:10148000220F331F441FAA1FA9F333D00E2E3AF0A8
:10149000E0E830D091505040E695001CCAF729D0C2
:1014A000FE2F27D0660F771F881FBB1F2617370711
:1014B0004807AB07B0E809F0BB0B802DBF01FF2741
:1014C00093585F4F2AF09E3F510568F011CE8DCDA5
:1014D0005F3FECF3983EDCF3869577956795B7957B
:1014E000F7959F5FC9F7880F911D9695879597F996
:1014F0000895E1E0660F771F881FBB1F621773070F
:101500008407BA0720F0621B730B840BBA0BEE1F23
:1015100088F7E09508959F3F31F0915020F487952A
:1015200077956795B795880F911D9695879597F94B
:10153000089500240A941616170618060906089539
:1015400000240A9412161306140605060895092E9F
:101550000394000C11F4882352F0BB0F40F4BF2B0E
:1015600011F460FF04C06F5F7F4F8F4F9F4F08954E
:10157000CF93DF938230910510F482E090E0E09108
:10158000F101F091F20120E030E0C0E0D0E03097CE
:1015900011F14081518148175907C0F04817590788
:1015A00061F482819381209719F09B838A832BC0F9
:1015B0009093F2018093F10126C02115310519F0B5
:1015C0004217530718F49A01BE01DF01EF010280B0
:1015D000F381E02DDCCF2115310509F1281B390BF2
:1015E0002430310590F412968D919C9113976115DA
:1015F000710521F0FB019383828304C09093F20173
:101600008093F101FD01329644C0FD01E20FF31F0A
:1016100081939193225031092D933C933AC02091AC
:10162000EF013091F001232B41F420910201309120
:1016300003013093F0012093EF01209100013091DC
:1016400001012115310541F42DB73EB74091040148
:1016500050910501241B350BE091EF01F091F00151
:10166000E217F307A0F42E1B3F0B2817390778F079
:10167000AC014E5F5F4F2417350748F04E0F5F1FD8
:101680005093F0014093EF018193919302C0E0E009
:10169000F0E0CF01DF91CF9108950F931F93CF9387
:1016A000DF93009709F48CC0FC01329713821282F9
:1016B0000091F1011091F2010115110581F42081D1
:1016C0003181820F931F2091EF013091F001281793
:1016D000390779F5F093F001E093EF0171C0D8017B
:1016E00040E050E0AE17BF0750F412962D913C91A8
:1016F0001397AD012115310509F1D901F3CF9D01F2
:10170000DA013383228360817181860F971F8217EC
:10171000930769F4EC0128813981260F371F2E5F6A
:101720003F4F318320838A819B8193838283452B22
:1017300029F4F093F201E093F10142C01396FC9377
:10174000EE931297ED01499159919E01240F351F97
:10175000E217F30771F480819181840F951F02963F
:1017600011969C938E938281938113969C938E9372
:101770001297E0E0F0E0D80112968D919C911397BA
:10178000009719F0F8018C01F6CF8D919C9198018A
:101790002E5F3F4F820F931F2091EF013091F00198
:1017A0002817390769F4309729F41092F201109242
:1017B000F10102C0138212821093F0010093EF0135
:1017C000DF91CF911F910F91089581E090E0F894FF
:0617D00000C0F894FFCFF9
:1017D6000000F30180000000400014005400001FC8
:1017E6001F1F1F1F1F00040A0A040000000200003A
:1017F60000008D015E01470338015601470139019A
:1018060000000000A9021B03470346034D007C00AD
:041816004200530039
:00000001FF
