:100000000C945E000C9486000C9486000C94860080
:100010000C9486000C9486000C9486000C949B0231
:100020000C9486000C9486000C9486000C94750346
:100030000C9486000C9486000C9486000C94860028
:100040000C9451020C9486000C9443030C941D03F1
:100050000C9486000C9486000C9486000C94860008
:100060000C9486000C9486000200000000240027F7
:10007000002A0000000000250028002B00040404D2
:100080000404040404020202020202030303030341
:10009000030102040810204080010204081020011E
:1000A0000204081020000000080002010000030400
:1000B00007000000000000000000E60411241FBE3D
:1000C000CFEFD8E0DEBFCDBF11E0A0E0B1E0EAE9BC
:1000D000FCE002C005900D92A833B107D9F722E0E9
:1000E000A8E3B1E001C01D92AE33B207E1F710E022
:1000F000CEE5D0E004C02197FE010E941305CD3566
:10010000D107C9F70E94D9030C944B060C94000048
:1001100090E0FC01EB55FF4F3491FC01EF56FF4F8F
:100120002491FC01E358FF4FE491EE2309F43BC016
:10013000332339F1333091F038F43130A9F03230D3
:1001400001F584B58F7D12C0373091F03830A1F0C1
:100150003430B9F4809180008F7D03C0809180009D
:100160008F77809380000DC084B58F7784BD09C0E0
:100170008091B0008F7703C08091B0008F7D809315
:10018000B000F0E0EE0FFF1FED58FF4FA591B491C6
:100190008FB7F894EC91611103C020952E2301C014
:1001A0002E2B2C938FBF08953FB7F894809199011F
:1001B00090919A01A0919B01B0919C0126B5A89BBA
:1001C00005C02F3F19F00196A11DB11D3FBFBA2FE9
:1001D000A92F982F8827820F911DA11DB11DBC0149
:1001E000CD0142E0660F771F881F991F4A95D1F70E
:1001F00008958F929F92AF92BF92CF92DF92EF922B
:10020000FF926B017C010E94D4004B015C01C11480
:10021000D104E104F104F1F00E94D400DC01CB012F
:1002200088199909AA09BB09883E9340A105B1051F
:1002300070F321E0C21AD108E108F10888EE880EB7
:1002400083E0981EA11CB11CC114D104E104F10487
:1002500019F7DDCFFF90EF90DF90CF90BF90AF9078
:100260009F908F900895CF92DF92EF92FF920F931D
:100270001F93CF93DF936C017A018B01C0E0D0E034
:10028000CE15DF0589F0D8016D918D01D601ED9174
:10029000FC910190F081E02DC6010995892B11F4A4
:1002A0007E0102C02196ECCFC701DF91CF911F9153
:1002B0000F91FF90EF90DF90CF900895089580E028
:1002C00090E00895FC01538D448D252F30E0842F5C
:1002D00090E0821B930B541710F0CF96089501976E
:1002E0000895FC01918D828D981761F0828DDF0158
:1002F000A80FB11D5D968C91928D9F5F9F73928F19
:1003000090E008958FEF9FEF0895FC01918D828D0D
:10031000981731F0828DE80FF11D858D90E00895DA
:100320008FEF9FEF0895FC01918D228D892F90E032
:10033000805C9F4F821B91098F73992708958DE9E7
:1003400091E00E94930121E0892B09F420E0822FA3
:100350000895FC01848DDF01A80FB11DA35ABF4F82
:100360002C91848D90E001968F739927848FA689B4
:10037000B7892C93A089B1898C9180648C93938DDB
:10038000848D981306C00288F389E02D80818F7DCB
:1003900080830895EF92FF920F931F93CF93DF9383
:1003A000EC0181E0888F9B8D8C8D981305C0E889C6
:1003B000F989808185FD24C0F62E0B8D10E00F5F3A
:1003C0001F4F0F731127E02E8C8DE8120CC00FB653
:1003D00007FCFACFE889F989808185FFF5CFCE0146
:1003E0000E94A901F1CF8B8DFE01E80FF11DE35AA8
:1003F000FF4FF0820B8FEA89FB898081806207C002
:10040000EE89FF896083E889F9898081806480832F
:1004100081E090E0DF91CF911F910F91FF90EF90DD
:100420000895CF93DF93EC01888D8823C9F0EA8982
:10043000FB89808185FD05C0A889B9898C9186FDDD
:100440000FC00FB607FCF5CF808185FFF2CFA889DA
:10045000B9898C9185FFEDCFCE010E94A901E7CF2C
:10046000DF91CF91089580E090E0892B29F00E94E0
:100470009F0181110C9400000895009769F0FC0120
:1004800001900020E9F73197AF01481B590BBC01DF
:100490008DE991E00C94330180E090E008950E9492
:1004A00046061F920F920FB60F9211242F933F937F
:1004B0008F939F93AF93BF938091950190919601F5
:1004C000A0919701B09198013091940123E0230FFE
:1004D0002D3720F40196A11DB11D05C026E8230F7C
:1004E0000296A11DB11D20939401809395019093D4
:1004F0009601A0939701B0939801809199019091F2
:100500009A01A0919B01B0919C010196A11DB11D82
:100510008093990190939A01A0939B01B0939C01C1
:10052000BF91AF919F918F913F912F910F900FBEEF
:100530000F901F9018951F920F920FB60F921124D3
:100540002F933F934F935F936F937F938F939F93DB
:10055000AF93BF93EF93FF9380918C0190918D01A6
:10056000A0918E01B0918F01892B8A2B8B2B59F191
:1005700080918B01E0918901F0918A019081892716
:10058000808380918C0190918D01A0918E01B0911A
:100590008F01181619061A061B060CF03DC0809133
:1005A0008C0190918D01A0918E01B0918F010197E6
:1005B000A109B10980938C0190938D01A0938E01C4
:1005C000B0938F0129C080910001E8E6F0E0E4914A
:1005D0009FEF90930001E130B9F098F0E230C9F458
:1005E000909170009D7F9093700091E09093B00087
:1005F0009091B100987F94609093B1001092B300F5
:1006000008C010926E0005C090916F009D7F90937E
:100610006F0060E00E948800FF91EF91BF91AF9161
:100620009F918F917F916F915F914F913F912F910A
:100630000F900FBE0F901F9018951F920F920FB63C
:100640000F9211242F933F934F935F936F937F9358
:100650008F939F93AF93BF93EF93FF938DE991E0B7
:100660000E94A901FF91EF91BF91AF919F918F914E
:100670007F916F915F914F913F912F910F900FBE9E
:100680000F901F9018951F920F920FB60F92112482
:100690002F938F939F93EF93FF93E091AD01F09190
:1006A000AE018081E091B301F091B40182FD12C0EE
:1006B00090818091B6018F5F8F732091B70182176F
:1006C00051F0E091B601F0E0E356FE4F958F809334
:1006D000B60101C08081FF91EF919F918F912F9181
:1006E0000F900FBE0F901F9018951F920F920FB68C
:1006F0000F9211242F933F938F939F93EF93FF9328
:100700008091880187FF05C01092850010928400B7
:1007100005C08091880187FD8091880180918801C2
:100720008F5F809388018091880187FF20C080912E
:1007300088018C30E4F42091840030918500809110
:100740008801082E000C990BFC01EE0FFF1F8E0F85
:100750009F1FFC01EC59FE4F81819281820F931FF4
:1007600090938900809388008091880117C08091C0
:10077000840090918500049680349C4918F480E4AC
:100780009CE905C080918400909185000496909327
:100790008900809388008FEF80938801FF91EF910B
:1007A0009F918F913F912F910F900FBE0F901F90AF
:1007B0001895789484B5826084BD84B5816084BDC9
:1007C00085B5826085BD85B5816085BD80916E00EF
:1007D000816080936E001092810080918100826020
:1007E000809381008091810081608093810080915D
:1007F00080008160809380008091B100846080934C
:10080000B1008091B00081608093B00080917A0047
:10081000846080937A0080917A00826080937A006D
:1008200080917A00816080937A0080917A0080685C
:1008300080937A001092C10081E090E00E94190537
:10084000EC01E091AD01F091AE0182E08083E09196
:10085000A901F091AA011082E091AB01F091AC01E5
:1008600080E180831092B501E091B101F091B20175
:1008700086E08083E091AF01F091B00190819061BA
:100880009083E091AF01F091B001908198609083E6
:10089000E091AF01F091B001908190689083E09178
:1008A000AF01F091B00190819F7D908368EC70E082
:1008B00080E090E00E94F90089E191E00E943D0211
:1008C0008CE291E00E943D02D0939301C09392018B
:1008D0008FE291E00E943D0283E391E00E943D029D
:1008E0008CE291E00E943D028FEF92E00E94190598
:1008F000FC01DC01AC50BD4F1C92108211821282AF
:10090000138214861586168617861482158216821F
:100910001782108A118A128A138A148A158A168AF3
:10092000178A148E158E168E178E108E118E128EBB
:10093000138E10A211A212A213A2119611961C924C
:100940001E92129611961C921E92129611961C924D
:100950001E92129611961C921E9212961D921C9235
:100960009093910180939001EAE9F0E02491E6E808
:10097000F0E08491882399F090E0880F991FFC01A2
:10098000E759FF4FA591B491FC01ED58FF4F8591B8
:1009900094918FB7F894EC91E22BEC938FBF61E0C8
:1009A00089E00E94880068EE73E080E090E00E9499
:1009B000F90060E089E00E94880064EF71E080E067
:1009C00090E00E94F9000E943302E9CFEDE9F1E0E6
:1009D0001382128288EE93E0A0E0B0E084839583D6
:1009E000A683B7838BE091E09183808385EC90E0D0
:1009F0009587848784EC90E09787868780EC90E0E9
:100A0000918B808B81EC90E0938B828B82EC90E0D9
:100A1000958B848B86EC90E0978B868B118E128E53
:100A2000138E148E0895EE0FFF1F0590F491E02DA4
:100A30000994CF93DF938230910510F482E090E027
:100A4000E0913C02F0913D0220E030E0C0E0D0E0D7
:100A5000309711F14081518148175907C0F048176C
:100A6000590761F482819381209719F09B838A83CF
:100A70002BC090933D0280933C0226C02115310586
:100A800019F04217530718F49A01BE01DF01EF0174
:100A90000280F381E02DDCCF2115310509F1281BFF
:100AA000390B2430310590F412968D919C91139757
:100AB0006115710521F0FB019383828304C090933B
:100AC0003D0280933C02FD01329644C0FD01E20FDD
:100AD000F31F81939193225031092D933C933AC097
:100AE00020913A0230913B02232B41F420910301E3
:100AF0003091040130933B0220933A02209101018E
:100B0000309102012115310541F42DB73EB74091D6
:100B1000050150910601241B350BE0913A02F0913A
:100B20003B02E217F307A0F42E1B3F0B28173907EF
:100B300078F0AC014E5F5F4F2417350748F04E0F39
:100B40005F1F50933B0240933A028193919302C0FE
:100B5000E0E0F0E0CF01DF91CF9108950F931F9374
:100B6000CF93DF93009709F48CC0FC013297138276
:100B7000128200913C0210913D020115110581F491
:100B800020813181820F931F20913A0230913B02E4
:100B90002817390779F5F0933B02E0933A0271C0C8
:100BA000D80140E050E0AE17BF0750F412962D91E7
:100BB0003C911397AD012115310509F1D901F3CF0E
:100BC0009D01DA013383228360817181860F971F33
:100BD0008217930769F4EC0128813981260F371FAA
:100BE0002E5F3F4F318320838A819B819383828351
:100BF000452B29F4F0933D02E0933C0242C013964A
:100C0000FC93EE931297ED01499159919E01240FA7
:100C1000351FE217F30771F480819181840F951FCE
:100C2000029611969C938E938281938113969C9346
:100C30008E931297E0E0F0E0D80112968D919C918E
:100C40001397009719F0F8018C01F6CF8D919C91C4
:100C500098012E5F3F4F820F931F20913A023091EF
:100C60003B022817390769F4309729F410923D02A6
:100C700010923C0202C01382128210933B02009336
:100C80003A02DF91CF911F910F91089581E090E09A
:0A0C9000F8940C944B06F894FFCF83
:100C9A00FF00003E02200000000000CA013301628A
:100CAA0001110293017101850144454255473A20D9
:100CBA00496E69742073657269616C000D0A00449B
:080CCA003A20004341520000F2
:00000001FF
