:100000000C94A4000C94CC000C94CC000C94CC0068
:100010000C94CC000C94CC000C94CC000C94CC0030
:100020000C94CC000C94CC000C94CC000C94CC0020
:100030000C94CC000C94CC000C94CC000C94CC0010
:100040000C948C080C94CC000C94CC000C94CC0038
:100050000C94CC000C94CC000C94CC000C94CC00F0
:100060000C94CB050C94CC0007634236B79BD8A701
:100070001A39685618AEBAAB558C1D3CB7CC5763CD
:10008000BD6DEDFD753EF6177231BF000000803F7B
:1000900008000000BE922449123EABAAAA2ABECD97
:1000A000CCCC4C3E00000080BEABAAAAAA3E000009
:1000B0000000BF000000803F000000000008417801
:1000C000D3BB4387D1133D190E3CC3BD4282AD2B38
:1000D0003E68EC8276BED98FE1A93E4C80EFFFBE30
:1000E00001C4FF7F3F00000000000000000024006A
:1000F00027002A0000000000250028002B00000037
:10010000000023002600290004040404040404045D
:1001100002020202020203030303030301020408B2
:100120001020408001020408102001020408102061
:1001300000000007000201000003040600000000A8
:10014000000000004F03C10411241FBECFEFD8E010
:10015000DEBFCDBF11E0A0E0B1E0E6E1FBE102C00F
:1001600005900D92AE33B107D9F712E0AEE3B1E0DE
:1001700001C01D92AD30B107E1F711E0C8E4D1E054
:1001800004C02297FE010E94850DC434D107C9F72F
:100190000E947A070C94890D0C940000CF93DF9392
:1001A000BC018230910510F462E070E0A0910B0276
:1001B000B0910C02ED01E0E0F0E040E050E021C041
:1001C000888199818617970769F48A819B81309786
:1001D00019F09383828304C090930C0280930B02E6
:1001E000FE0134C06817790738F44115510519F03C
:1001F0008417950708F4AC01FE018A819B819C015C
:10020000E9012097E9F641155105A9F1CA01861BBC
:10021000970B049708F4BA01E0E0F0E02AC08D9152
:100220009C91119784179507F9F46417750781F469
:1002300012968D919C911397309719F09383828336
:1002400004C090930C0280930B02FD0132964CC0C7
:10025000CA01861B970BFD01E80FF91F619371938B
:1002600002978D939C9340C0FD01828193819C01F4
:10027000D9011097A1F68091090290910A02892B69
:1002800041F480910A0190910B0190930A028093AE
:10029000090240910C0150910D014115510541F4A5
:1002A0004DB75EB78091080190910901481B590B29
:1002B0002091090230910A02CA01821B930B861712
:1002C000970780F0AB014E5F5F4F8417950750F0A2
:1002D000420F531F50930A0240930902F9016193A0
:1002E000719302C0E0E0F0E0CF01DF91CF9108957B
:1002F000CF93DF93009709F450C0EC0122971B8243
:100300001A82A0910B02B0910C02109709F140E003
:1003100050E0AC17BD0708F1BB83AA83FE01219111
:100320003191E20FF31FAE17BF0779F48D919C91C5
:100330001197280F391F2E5F3F4F3983288312965C
:100340008D919C9113979B838A834115510571F47C
:10035000D0930C02C0930B0220C012968D919C91F9
:100360001397AD01009711F0DC01D3CFFA01D383CD
:10037000C28321913191E20FF31FCE17DF0769F499
:1003800088819981280F391F2E5F3F4FFA013183F1
:1003900020838A819B8193838283DF91CF9108950B
:1003A000FC0160834183148280E28583168285E0AC
:1003B000848717820895FC011382128282E191E002
:1003C0009183808364834187228713860895CF9227
:1003D000DF92EF92FF920F931F936C01062F86E836
:1003E000E82E81E0F82EC701F60164810E9487049F
:1003F00010E0F601838590E0082B192BC701602FD0
:100400000E940905C7010E944C051F910F91FF90A2
:10041000EF90DF90CF900895FF920F931F938C0180
:10042000F62E64600E94E70181E090E00E942009BE
:100430008BEFF822C8016F2D0E94E70182E390E064
:100440000E9420091F910F91FF900895FF920F9332
:100450001F938C01F62E0E94E701C8016F2D0E94A8
:100460000C021F910F91FF900895EF92FF920F934E
:100470001F937C01162F042F607F642B0E9426029D
:100480001295107F102BC701612F0E9426021F9129
:100490000F91FF90EF90089541E00E94350281E0B6
:1004A00090E00895FC0188E08387CF0160E00E941E
:1004B000E7010895EF92FF920F931F93CF93DF937D
:1004C0008C017A016770660F660F660F606440E00A
:1004D0000E943502C0E0D0E0D801ED91FC91D70137
:1004E000AC0FBD1F0190F081E02DC8016C91099502
:1004F0002196C830D10581F7DF91CF911F910F91DF
:10050000FF90EF90089562E040E00E94350280ED98
:1005100097E00E9420090895FC016681862F84607F
:1005200086836C60CF0140E00E943502089561E04F
:1005300040E00E94350280ED97E00E942009089576
:10054000CF93DF93EC01423018F08D8188608D836A
:100550004887222319F0413009F447C062E370E074
:1005600080E090E00E94FA08CE016B850E94E701CE
:1005700068EE73E080E090E00E94FA08CE0160E34C
:100580000E94260284E991E10E942009CE0160E3E5
:100590000E94260284E991E10E942009CE0160E3D5
:1005A0000E94260286E990E00E942009CE0160E2C6
:1005B0000E9426026D816062CE0140E00E943502F9
:1005C00084E08E83CE010E948C02CE010E949702AD
:1005D00082E08F83CE0166E040E00E943502CE01CA
:1005E0000E948302DF91CF9108958D8184608D8375
:1005F000B5CF0F931F938C0186E891E00E945005C0
:10060000F8011582C8016185428520E00E94A002A0
:100610001F910F9108950E94F9020895EF92FF92A1
:100620000F931F93DF93CF93CDB7DEB728970FB605
:10063000F894DEBF0FBECDBF8C01FE013196CF0115
:1006400036E1E32E31E0F32E28E0D7010D907D0155
:10065000DC010D92CD012150C1F7D80118968C9183
:10066000841710F4482F4150842F90E0880F991F71
:10067000E80FF91F8081680F6068C80140E00E94A0
:10068000350228960FB6F894DEBF0FBECDBFCF91CE
:10069000DF911F910F91FF90EF90089508950F93B0
:1006A0001F938EE390E00E9489078C01459667E2D4
:1006B00040E122E00E94DB01C8018C9669E04AE03B
:1006C0000E94D00110933F0100933E011F910F91B2
:1006D00008955F926F927F928F929F92AF92BF9296
:1006E000CF92DF92EF92FF920F931F93DF93CF93FE
:1006F000CDB7DEB760970FB6F894DEBF0FBECDBFA3
:1007000080913E0190913F018E010F5F1F4FD801F4
:10071000E6E2F1E028E001900D922150E1F769E076
:10072000862E912C8C0E9D1ED401EEE1F1E028E086
:1007300001900D922150E1F755E1652E712C680E64
:10074000791EC3010E940B03C3010E945202C30120
:1007500061E0A8010E945A02C30162E0A4010E9464
:100760005A02C3010E949702C30160E040E00E9468
:100770000E03C30160E071E00E948908C30162E0DA
:1007800040E00E940E03C3016EEC74E04AE050E0CA
:100790000E947608C30165E040E00E940E03C30199
:1007A00062E071E00E948908C30161E471E04AE0FF
:1007B00050E00E947608C3016BE040E00E940E0307
:1007C000C30164E071E00E94890810E003E0612F3A
:1007D00061706002B0011124645F412F4595C3012F
:1007E0000E940E03C30162E071E00E9489081F5F4E
:1007F000143069F741E0842E912C582C5A94B4019E
:10080000882777FD8095982F0E94C50A9B01AC012F
:1008100060E070E080E291E40E94B40B5B016C0147
:10082000652D772767FD7095872F972F0E94C50A42
:100830009B01AC0160E070E080E291E40E94B40BA7
:100840007B018C01C601B5010E94920A9B01AC019B
:1008500083EF93E0B9010E943A0D6C01C801B70122
:100860000E94920A9B01AC01C601B9010E943A0D97
:10087000672B09F03FC00894811C911C85E0881605
:10088000910409F0BACFC30160E041E00E940E0379
:10089000C30166E071E00E948908C30162E041E0A3
:1008A0000E940E03C30162E870E04AE050E00E943B
:1008B0007608C30162E00E944C02C30160EB71E064
:1008C0004AE050E00E94760860960FB6F894DEBFCA
:1008D0000FBECDBFCF91DF911F910F91FF90EF9091
:1008E000DF90CF90BF90AF909F908F907F906F9050
:1008F0005F900895652D6170635F5594C301452D28
:100900000E940E03C30161E00E944C02B4CF81E05B
:10091000809385016093620110928301109284019B
:1009200008952091610130E080916001281B310918
:10093000C90108954091600180916101481718F044
:100940002FEF3FEF0AC0E42FF0E0E05CFE4F808124
:10095000282F30E04F5F40936001C9010895E09176
:10096000600180916101E81718F0EFEFFFEF06C01A
:10097000F0E0E05CFE4F8081E82FF0E0CF010895C9
:100980000895109289011092880188EE93E0A0E00A
:10099000B0E080938A0190938B01A0938C01B09377
:1009A0008D0182E391E09093870180938601089501
:1009B000CF92DF92EF92FF920F931F93CF93DF932B
:1009C0007C016B018A01809185018823A1F0C0E040
:1009D000D0E00DC0D701ED91FC91D601AC0FBD1F49
:1009E0000190F081E02DC7016C9109952196C01707
:1009F000D10780F304C0CB01642F0E94B005C80169
:100A0000DF91CF911F910F91FF90EF90DF90CF90EA
:100A10000895DF93CF930F92CDB7DEB7FC016983C2
:100A2000809185018823C9F080918401803238F05B
:100A300081E090E09383828320E030E015C08091D4
:100A40008301E82FF0E0ED59FE4F998190838F5F8D
:100A5000809383018093840105C0CE01019661E0FB
:100A60000E94B00521E030E0C9010F90CF91DF91E5
:100A700008950F93062F8091620163E671E0409123
:100A8000840121E00E945B05109283011092840191
:100A9000109285010F91089561E00E943905089533
:100AA00010926001109261011092830110928401F2
:100AB0000E945C0708950F931F93582F122F413205
:100AC00010F081E04AC0809192018823E1F782E032
:100AD00080939201009394018FEF8093FF01109215
:100AE000BA014093BB01AAE9B1E0FB0102C08191C8
:100AF0008D938E2F861B8417D0F3109293018091D3
:100B00009301550F852B809393018091950181303E
:100B100041F410929501809193018093BB0085EC84
:100B200001C085EE8093BC00112321F080919201D9
:100B30008230E1F38091FF018F3F11F480E00DC01E
:100B40008091FF01803211F482E007C08091FF01A3
:100B5000803311F084E001C083E01F910F9108956C
:100B6000482F613210F081E0089580919201843025
:100B700011F082E008956093DD01ACEBB1E0842FC9
:100B80009C01F90102C081918D938E2F841B8617E1
:100B9000D0F380E008951F920F920FB60F921124A8
:100BA0002F933F934F935F936F937F938F939F9375
:100BB000AF93BF93EF93FF938091B90090E0887F4C
:100BC00090708036910509F4F2C081369105CCF51C
:100BD0008832910509F47BC089329105B4F48031E3
:100BE000910509F46FC0813191053CF4009709F437
:100BF00047C1089709F04FC165C08831910509F4D4
:100C000066C0809709F047C182C08034910509F41D
:100C1000A4C08134910544F48033910509F482C065
:100C2000C89709F038C189C08035910509F489C099
:100C30008835910509F496C08834910509F02BC1D7
:100C4000AEC08839910509F413C189399105ECF4D6
:100C50008837910509F4ABC0893791054CF4883683
:100C6000910509F4A4C08037910509F014C19FC013
:100C70008838910509F4FCC08039910509F49DC0BC
:100C80008038910509F007C198C0803B910509F4AF
:100C9000C6C0813B91054CF4803A910509F49FC090
:100CA000883A910509F0F7C0BAC0803C910509F473
:100CB000E3C0883C910509F4DFC0883B910509F049
:100CC000EAC0C2C0809193018093BB00CFC09091D5
:100CD000BA018091BB01981768F49091BA01E92F8D
:100CE000F0E0E656FE4F80818093BB009F5F9093BB
:100CF000BA01BCC080919401882309F44BC085EDF2
:100D00008093BC008091BC0084FDFCCFC2C080E217
:100D10008093FF0185ED8093BC008091BC0084FD31
:100D2000FCCFB7C080E38093FF0185ED8093BC00CA
:100D30008091BC0084FDFCCFACC088E38093FF01B0
:100D40009BC08091BA019091BB00E82FF0E0E6567D
:100D5000FE4F90838F5F8093BA019091BA0180918A
:100D6000BB0182C08091BA019091BB00E82FF0E0F6
:100D7000E656FE4F90838F5F8093BA018091940175
:100D8000882341F085ED8093BC008091BC0084FDF8
:100D9000FCCF7FC081E08093950184EA6EC085ED31
:100DA0008093BC008091BC0084FDFCCF72C083E0C6
:100DB000809392011092FE0159C08091FE01803211
:100DC00008F056C08091FE019091BB00E82FF0E042
:100DD000E252FE4F90838F5F8093FE0147C0809167
:100DE000FE01803230F4E091FE01F0E0E252FE4F6D
:100DF000108285ED8093BC008091BC0084FDFCCF07
:100E0000109292016091FE01E0919801F091990198
:100E10008EED91E070E009951092FE012DC084E006
:100E2000809392011092DC011092DD01E091960115
:100E3000F091970109958091DD01882329F481E0E3
:100E40008093DD011092BC019091DC01E92FF0E06C
:100E5000E454FE4F80818093BB009F5F9093DC0140
:100E60009091DC018091DD01981710F485EC01C0B0
:100E700085E88093BC000FC085EC8093BC0009C05E
:100E80001092FF0185ED8093BC008091BC0084FD31
:100E9000FCCF10929201FF91EF91BF91AF919F9182
:100EA0008F917F916F915F914F913F912F910F9013
:100EB0000FBE0F901F9018951092920181E08093C1
:100EC00094011092950182E161E00E94920983E110
:100ED00061E00E949209E9EBF0E080818E7F8083DF
:100EE00080818D7F808388E48093B80085E480933F
:100EF000BC000895CF93DF930E942A090E946903E2
:100F0000C0E0D0E00E944E032097E1F30E94000071
:100F1000F9CF0E94CE000895CF92DF92EF92FF9218
:100F20000F931F93CF93DF937C016B018A01C0E085
:100F3000D0E00FC0D6016D916D01D701ED91FC910C
:100F40000190F081E02DC7010995C80FD91F01500C
:100F500010400115110571F7CE01DF91CF911F915E
:100F60000F91FF90EF90DF90CF900895CF93DF9394
:100F7000EC016115710519F420E030E00FC0DB01D0
:100F80000D900020E9F71197A61BB70BE881F981B6
:100F90000280F381E02DAD0109959C01C901DF912B
:100FA000CF9108954F925F927F928F929F92AF92CE
:100FB000BF92CF92DF92EF92FF920F931F93DF9336
:100FC000CF93CDB7DEB7A1970FB6F894DEBF0FBEB3
:100FD000CDBF2C01742ECB01223008F42AE019A2D7
:100FE00031E2C32ED12CCC0EDD1E822E9924AA24F0
:100FF000BB24672D752FA50194010E944D0D790129
:101000008A01C801B701A50194010E941B0D472D5B
:10101000461B0894C108D1084A3014F4405D01C051
:10102000495CF6014083E114F1040105110521F04A
:101030007E2C5F2DC801DDCFC201B6010E94B6072C
:10104000A1960FB6F894DEBF0FBECDBFCF91DF9152
:101050001F910F91FF90EF90DF90CF90BF90AF90D6
:101060009F908F907F905F904F900895CF92DF92E6
:10107000EF92FF920F931F93CF93DF93EC016A01DE
:101080007B012115310541F4E881F9810190F0815E
:10109000E02D642F09951FC02A303105D1F477FF68
:1010A00017C0E881F9810190F081E02D6DE209958A
:1010B0008C0144275527BA014C195D096E097F0937
:1010C000CE012AE00E94D2079801280F391F04C0E0
:1010D0002AE00E94D2079C01C901DF91CF911F91A4
:1010E0000F91FF90EF90DF90CF900895EF92FF92D5
:1010F0000F931F937B019A010027F7FC0095102F97
:10110000B801A7010E9436081F910F91FF90EF9040
:1011100008950E94B60708951F920F920FB60F927E
:1011200011242F933F938F939F93AF93BF938091FD
:10113000040290910502A0910602B091070230913D
:1011400008020196A11DB11D232F2D5F2D3720F020
:101150002D570196A11DB11D209308028093040212
:1011600090930502A0930602B093070280910002BB
:1011700090910102A0910202B09103020196A11D7B
:10118000B11D8093000290930102A0930202B093DC
:101190000302BF91AF919F918F913F912F910F903B
:1011A0000FBE0F901F9018959FB7F89420910002E2
:1011B00030910102409102025091030286B5A89B32
:1011C00006C08F3F21F02F5F3F4F4F4F5F4F9FBFB4
:1011D000542F432F322F2227280F311D411D511D1F
:1011E00082E0220F331F441F551F8A95D1F7B901A2
:1011F000CA010895EF92FF920F931F93CF93DF934D
:101200007B018C010E94D408EB010EC00E94D4081F
:101210006C1B7D0B685E7340C8F30894E108F1080D
:1012200001091109C851DC4FE114F1040105110550
:1012300069F7DF91CF911F910F91FF90EF90089583
:10124000019739F0880F991F880F991F029701970E
:10125000F1F70895789484B5826084BD84B5816087
:1012600084BD85B5826085BD85B5816085BDEEE6AE
:10127000F0E0808181608083E1E8F0E0108280818D
:1012800082608083808181608083E0E8F0E08081FB
:1012900081608083E1EBF0E0808184608083E0EB1B
:1012A000F0E0808181608083EAE7F0E08081846003
:1012B000808380818260808380818160808380815F
:1012C000806880831092C1000895833071F084306B
:1012D00028F48130A1F0823021F514C08630B1F0BD
:1012E0008730D1F08430E9F404C0809180008F779A
:1012F00003C0809180008F7D80938000089584B525
:101300008F7702C084B58F7D84BD08958091B00031
:101310008F778093B00008958091B0008F7D809387
:10132000B0000895FF920F931F93F62E482F50E0C0
:10133000CA01805D9E4FFC012491CA01845E9E4FCC
:10134000FC011491485F5E4FFA0104910023C9F03B
:10135000222319F0822F0E946509E02FF0E0EE0FA2
:10136000FF1FEC50FF4FA591B4919FB7F894FF2059
:1013700021F48C911095812302C08C91812B8C9348
:101380009FBF1F910F91FF9008955058BB27AA2728
:101390000ED04DC13ED130F043D120F031F49F3F0B
:1013A00011F41EF433C10EF4E095E7FB29C1E92FD7
:1013B0004FD180F3BA17620773078407950718F0B7
:1013C00071F49EF567C10EF4E0950B2EBA2FA02D97
:1013D0000B01B90190010C01CA01A0011124FF27E2
:1013E000591B99F0593F50F4503E68F11A16F040DD
:1013F000A22F232F342F4427585FF3CF46953795DC
:101400002795A795F0405395C9F77EF41F16BA0BA0
:10141000620B730B840BBAF09150A1F0FF0FBB1F4E
:10142000661F771F881FC2F70EC0BA0F621F731F97
:10143000841F48F4879577956795B795F7959E3FF4
:1014400008F0B3CF9395880F08F09927EE0F979582
:10145000879508950CD0EBC0E3D040F0DAD030F09F
:1014600021F45F3F19F0CCC0511115C1CFC0F0D0AD
:1014700098F39923C9F35523B1F3951B550BBB275B
:10148000AA2762177307840738F09F5F5F4F220F08
:10149000331F441FAA1FA9F333D00E2E3AF0E0E801
:1014A00030D091505040E695001CCAF729D0FE2F4D
:1014B00027D0660F771F881FBB1F261737074807DF
:1014C000AB07B0E809F0BB0B802DBF01FF27935895
:1014D0005F4F2AF09E3F510568F092C0DCC05F3F2D
:1014E000ECF3983EDCF3869577956795B795F7957D
:1014F0009F5FC9F7880F911D9695879597F9089575
:10150000E1E0660F771F881FBB1F62177307840710
:10151000BA0720F0621B730B840BBA0BEE1F88F71F
:10152000E095089504D06894B111B5C0089598D09D
:1015300088F09F5790F0B92F9927B751A0F0D1F0BC
:10154000660F771F881F991F1AF0BA95C9F712C046
:10155000B13081F09FD0B1E008959CC0672F782F03
:101560008827B85F39F0B93FCCF3869577956795B2
:10157000B395D9F73EF490958095709561957F4F1E
:101580008F4F9F4F0895E89409C097FB3EF49095C4
:101590008095709561957F4F8F4F9F4F9923A9F04C
:1015A000F92F96E9BB279395F695879577956795DB
:1015B000B795F111F8CFFAF4BB0F11F460FF1BC01F
:1015C0006F5F7F4F8F4F9F4F16C0882311F096E9B2
:1015D00011C0772321F09EE8872F762F05C0662360
:1015E00071F096E8862F70E060E02AF09A95660F19
:1015F000771F881FDAF7880F9695879597F90895D2
:1016000097F99F6780E870E060E008959FEF80ECB5
:10161000089500240A941616170618060906089558
:1016200000240A9412161306140605060895092EBE
:101630000394000C11F4882352F0BB0F40F4BF2B2D
:1016400011F460FF04C06F5F7F4F8F4F9F4F08956D
:1016500057FD9058440F551F59F05F3F71F0479563
:10166000880F97FB991F61F09F3F79F08795089548
:10167000121613061406551FF2CF4695F1DF08C067
:10168000161617061806991FF1CF86957105610584
:1016900008940895E894BB2766277727CB0197F92C
:1016A00008950BD0C4CFB5DF28F0BADF18F095232A
:1016B00009F0A6CFABCF1124EECFCADFA0F3959FE0
:1016C000D1F3950F50E0551F629FF001729FBB2729
:1016D000F00DB11D639FAA27F00DB11DAA1F649FD5
:1016E0006627B00DA11D661F829F2227B00DA11D88
:1016F000621F739FB00DA11D621F839FA00D611D0E
:10170000221F749F3327A00D611D231F849F600D2E
:10171000211D822F762F6A2F11249F5750408AF067
:10172000E1F088234AF0EE0FFF1FBB1F661F771FF3
:10173000881F91505040A9F79E3F510570F060CF2F
:10174000AACF5F3FECF3983EDCF3869577956795DB
:10175000B795F795E7959F5FC1F7FE2B880F911D11
:101760009695879597F90895FA01EE0FFF1F309629
:101770002105310599F16115710561F48038BFE3E8
:101780009B0749F168949038810561F08038BFEF7C
:101790009B0741F0992342F5FF3FE1053105210503
:1017A00011F1E8940894E795D901AA2329F4AB2F05
:1017B000BE2FF85FD0F310C0FF5F70F4A695E0F77E
:1017C000F73950F019F0FF3A38F49F779F930CD017
:1017D0000F9007FC905808953EF018CF60E070E03D
:1017E00080E89FE308954FE79F775F934F933F9380
:1017F0002F939ED02F913F914F915F9152DF05C063
:1018000019F40EF0FDCE46CF01CF2ADFC8F396388B
:10181000C0F707F80F92E8942BE33AEA48EB5FE74A
:101820004EDF0F920F920F924DB75EB70F92C0D05E
:10183000E8E6F0E016D04F915F91EF91FF91E595CA
:10184000EE1FFF1F49F0FE57E0684427EE0F441FCC
:10185000FA95E1F74195550B32D00F9007FE26C05F
:101860000895DF93CF931F930F93FF92EF92DF9230
:101870007B018C01689405C0DA2EEF011EDFFE01AA
:10188000E894A5912591359145915591AEF3EF01DD
:101890008EDDFE019701A801DA9479F7DF90EF90D1
:1018A000FF900F911F91CF91DF9108959B01AC01A3
:1018B00060E070E080E89FE3CDCDA2CEACC0D0DE8A
:1018C000E8F39923D9F3940F511DBBF39150504085
:1018D00094F059F0882332F0660F771F881F9150DB
:1018E0005040C1F79E3F510544F7880F911D9695D2
:1018F000879597F908955F3FACF0983E9CF0BB2721
:10190000869577956795B79508F4B1609395C1F77B
:10191000BB0F58F711F460FFE8CF6F5F7F4F8F4F19
:101920009F4FE3CFB8CE0EF076C070CE689468CEED
:1019300097DEC8F39923D1F3C6F3DF93CF931F93B8
:101940000F93FF92C92FDD2788232AF02197660F76
:10195000771F881FDAF720E030E040E85FEB9FE375
:10196000883920F0803E30F021968F770FDDE0E956
:10197000F0E003C00BDDEDEBF0E073DF8B01BE01A7
:10198000EC01FB2E6F5771097595771F880B990B2A
:10199000FCDD28E132E741E35FE38FDEAF2D980104
:1019A000AE01FF900F911F91CF91DF9100DD3FCEEF
:1019B000FA01DC01AA0FBB1F9B01AC01BF5728F441
:1019C00022273327442750781FC0B75188F4AB2F04
:1019D0000024469537952795011CA395D2F3002046
:1019E00069F0220F331F441FB395DAF30DD0CDCC2D
:1019F00061307105A0E88A07B94630F49B01AC015B
:101A00006627772788279078309621F020833183C6
:101A10004283538308959F3F49F0915028F486955F
:101A200077956795B7959F5F80389F4F880F9695FC
:101A3000879597F90895629FD001739FF001829F67
:101A4000E00DF11D649FE00DF11D929FF00D839F4D
:101A5000F00D749FF00D659FF00D9927729FB00DEA
:101A6000E11DF91F639FB00DE11DF91FBD01CF01FD
:101A70001124089597FB092E07260AD077FD04D07C
:101A80002ED006D000201AF4709561957F4F0895EE
:101A9000F6F7909581959F4F0895A1E21A2EAA1B03
:101AA000BB1BFD010DC0AA1FBB1FEE1FFF1FA2170E
:101AB000B307E407F50720F0A21BB30BE40BF50B0B
:101AC000661F771F881F991F1A9469F76095709594
:101AD000809590959B01AC01BD01CF010895AA1B93
:101AE000BB1B51E107C0AA1FBB1FA617B70710F009
:101AF000A61BB70B881F991F5A95A9F7809590953B
:101B0000BC01CD010895EE0FFF1F0590F491E02D6B
:061B10000994F894FFCFD8
:101B16004D007C004200530020000D020000000032
:101B260000004C028C070000400014005400040A18
:101B36000A0400000000001F1F1F1F1F1F000000D7
:0E1B460000000905D80491049A04AF04C004FD
:00000001FF
