:100000000C94A4000C94CC000C94CC000C94CC0068
:100010000C94CC000C94CC000C94CC000C94CC0030
:100020000C94CC000C94CC000C94CC000C94CC0020
:100030000C94CC000C94CC000C94CC000C94CC0010
:100040000C94A7070C94CC000C94CC000C94CC001E
:100050000C94CC000C94CC000C94CC000C94CC00F0
:100060000C94E9040C94CC0007634236B79BD8A7E4
:100070001A39685618AEBAAB558C1D3CB7CC5763CD
:10008000BD6DEDFD753EF6177231BF000000803F7B
:1000900008000000BE922449123EABAAAA2ABECD97
:1000A000CCCC4C3E00000080BEABAAAAAA3E000009
:1000B0000000BF000000803F000000000008417801
:1000C000D3BB4387D1133D190E3CC3BD4282AD2B38
:1000D0003E68EC8276BED98FE1A93E4C80EFFFBE30
:1000E00001C4FF7F3F00000000000000000024006A
:1000F00027002A0000000000250028002B00000037
:10010000000023002600290004040404040404045D
:1001100002020202020203030303030301020408B2
:100120001020408001020408102001020408102061
:1001300000000007000201000003040600000000A8
:10014000000000004D02DF0311241FBECFEFD8E0F6
:10015000DEBFCDBF11E0A0E0B1E0E0E9F9E102C00F
:1001600005900D92AA33B107D9F712E0AAE3B1E0E6
:1001700001C01D92A434B107E1F711E0C8E4D1E059
:1001800004C02297FE010E94C20CC434D107C9F7F3
:100190000E9498060C94C60C0C940000FC0160832D
:1001A0004183148280E28583168285E084871782EA
:1001B0000895FC01138212828DE091E09183808387
:1001C00064834187228713860895CF92DF92EF924E
:1001D000FF920F931F936C01062F81ECE82E81E0B4
:1001E000F82EC701F60164810E94A50310E0F60114
:1001F000838590E0082B192BC701602F0E942704EC
:10020000C7010E946A041F910F91FF90EF90DF9049
:10021000CF900895FF920F931F938C01F62E646088
:100220000E94E50081E090E00E943B088BEFF822FD
:10023000C8016F2D0E94E50082E390E00E943B0818
:100240001F910F91FF900895FF920F931F938C01C0
:10025000F62E0E94E500C8016F2D0E940A011F9131
:100260000F91FF900895EF92FF920F931F937C01DF
:10027000162F042F607F642B0E9424011295107F9B
:10028000102BC701612F0E9424011F910F91FF9035
:10029000EF90089541E00E94330181E090E00895DD
:1002A000FC0188E08387CF0160E00E94E5000895AB
:1002B000EF92FF920F931F93CF93DF938C017A01FC
:1002C0006770660F660F660F606440E00E9433013E
:1002D000C0E0D0E0D801ED91FC91D701AC0FBD1F7B
:1002E0000190F081E02DC8016C9109952196C830EC
:1002F000D10581F7DF91CF911F910F91FF90EF9082
:10030000089562E040E00E94330180ED97E00E9492
:100310003B080895FC016681862F846086836C60AB
:10032000CF0140E00E943301089561E040E00E9467
:10033000330180ED97E00E943B080895CF93DF934F
:10034000EC01423018F08D8188608D83488722232C
:1003500019F0413009F447C062E370E080E090E0BA
:100360000E941508CE016B850E94E50068EE73E0DF
:1003700080E090E00E941508CE0160E30E94240115
:1003800084E991E10E943B08CE0160E30E942401D0
:1003900084E991E10E943B08CE0160E30E942401C0
:1003A00086E990E00E943B08CE0160E20E942401B1
:1003B0006D816062CE0140E00E94330184E08E8353
:1003C000CE010E948A01CE010E94950182E08F83B6
:1003D000CE0166E040E00E943301CE010E9481011F
:1003E000DF91CF9108958D8184608D83B5CF0F9378
:1003F0001F938C0181EC91E00E946E04F80115823C
:10040000C8016185428520E00E949E011F910F91E5
:1004100008950E94F7010895EF92FF920F931F93A2
:10042000DF93CF93CDB7DEB728970FB6F894DEBF32
:100430000FBECDBF8C01FE013196CF0131E1E32E1D
:1004400031E0F32E28E0D7010D907D01DC010D9203
:10045000CD012150C1F7D80118968C91841710F462
:10046000482F4150842F90E0880F991FE80FF91F03
:100470008081680F6068C80140E00E9433012896BF
:100480000FB6F894DEBF0FBECDBFCF91DF911F91A5
:100490000F91FF90EF90089508950F931F9302E539
:1004A00011E0C80167E240E122E00E94D900109209
:1004B000620110925F0110925E0182E00E9480084A
:1004C0009093640180936301109261011092600126
:1004D00083E00E948008909366018093650182E02A
:1004E0000E9480089093680180936701C801479635
:1004F00069E04AE00E94CE001F910F9108957F921B
:100500008F929F92AF92BF92CF92DF92EF92FF9223
:100510000F931F93DF93CF93CDB7DEB760970FB6DE
:10052000F894DEBF0FBECDBF82E591E00E940902C4
:1005300082E591E00E945001AE014F5F5F4FDA010A
:10054000E1E2F1E088E001900D928150E1F78E0147
:10055000075F1F4FD801E9E1F1E088E001900D92BB
:100560008150E1F782E591E061E00E94580182E567
:1005700091E062E0A8010E94580182E591E00E94AA
:10058000950182E591E060E040E00E940C0282E586
:1005900091E060E071E00E94A40782E591E062E0F2
:1005A00040E00E940C0282E591E06EEC74E04AE0CB
:1005B00050E00E94910782E591E065E040E00E94F2
:1005C0000C0282E591E062E071E00E94A40782E5FE
:1005D00091E061E471E04AE050E00E94910782E519
:1005E00091E06BE040E00E940C0282E591E064E063
:1005F00071E00E94A40710E003E0612F61706002C7
:10060000B0011124645F412F459582E591E00E947D
:100610000C0282E591E062E071E00E94A4071F5F96
:10062000143059F731E0832E912C782C7A94B40150
:10063000882777FD8095982F0E94020A9B01AC01C4
:1006400060E070E080E291E40E94F10A5B016C01DD
:10065000672D772767FD7095872F972F0E94020AD5
:100660009B01AC0160E070E080E291E40E94F10A3D
:100670007B018C01C601B5010E94CF099B01AC0131
:1006800083EF93E0B9010E94770C6C01C801B701B8
:100690000E94CF099B01AC01C601B9010E94770CF1
:1006A000672B09F043C00894811C911C85E08816D3
:1006B000910409F0BACF82E591E060E041E00E9448
:1006C0000C0282E591E066E071E00E94A40782E5F9
:1006D00091E062E041E00E940C0282E591E062E874
:1006E00070E04AE050E00E94910782E591E062E00C
:1006F0000E944A0182E591E060EB71E04AE050E03F
:100700000E94910760960FB6F894DEBF0FBECDBF72
:10071000CF91DF911F910F91FF90EF90DF90CF90DD
:10072000BF90AF909F908F907F900895672D6170DC
:10073000635F759482E591E0472D0E940C0282E58B
:1007400091E061E00E944A01AECF81E08093C00158
:1007500060939D011092BE011092BF0108952091F7
:100760009C0130E080919B01281B3109C90108954B
:1007700040919B0180919C01481718F02FEF3FEFAB
:100780000AC0E42FF0E0E558FE4F8081282F30E0CA
:100790004F5F40939B01C9010895E0919B018091B7
:1007A0009C01E81718F0EFEFFFEF06C0F0E0E55806
:1007B000FE4F8081E82FF0E0CF0108950895109258
:1007C000C4011092C30188EE93E0A0E0B0E08093F2
:1007D000C5019093C601A093C701B093C8018DE2F3
:1007E00091E09093C2018093C1010895CF92DF926E
:1007F000EF92FF920F931F93CF93DF937C016B01D6
:100800008A018091C0018823A1F0C0E0D0E00DC032
:10081000D701ED91FC91D601AC0FBD1F0190F08185
:10082000E02DC7016C9109952196C017D10780F37F
:1008300004C0CB01642F0E94CE04C801DF91CF9188
:100840001F910F91FF90EF90DF90CF900895DF936D
:10085000CF930F92CDB7DEB7FC0169838091C001C1
:100860008823C9F08091BF01803238F081E090E0A8
:100870009383828320E030E015C08091BE01E82F91
:10088000F0E0E256FE4F998190838F5F8093BE0126
:100890008093BF0105C0CE01019661E00E94CE04A5
:1008A00021E030E0C9010F90CF91DF9108950F93BF
:1008B000062F80919D016EE971E04091BF0121E01A
:1008C0000E9479041092BE011092BF011092C001E3
:1008D0000F91089561E00E945704089510929B01C2
:1008E00010929C011092BE011092BF010E947A06E4
:1008F00008950F931F93582F122F413210F081E06B
:100900004AC08091CD018823E1F782E08093CD0138
:100910000093CF018FEF80933A021092F50140933C
:10092000F601A5EDB1E0FB0102C081918D938E2F00
:10093000861B8417D0F31092CE018091CE01550F03
:10094000852B8093CE018091D001813041F41092AB
:10095000D0018091CE018093BB0085EC01C085EE73
:100960008093BC00112321F08091CD018230E1F30E
:1009700080913A028F3F11F480E00DC080913A02DD
:10098000803211F482E007C080913A02803311F086
:1009900084E001C083E01F910F910895482F6132D8
:1009A00010F081E008958091CD01843011F082E053
:1009B000089560931802A7EFB1E0842F9C01F9011C
:1009C00002C081918D938E2F841B8617D0F380E017
:1009D00008951F920F920FB60F9211242F933F93F9
:1009E0004F935F936F937F938F939F93AF93BF9337
:1009F000EF93FF938091B90090E0887F90708036EC
:100A0000910509F4F2C081369105CCF58832910543
:100A100009F47BC089329105B4F48031910509F461
:100A20006FC0813191053CF4009709F447C10897E4
:100A300009F04FC165C08831910509F466C08097FF
:100A400009F047C182C08034910509F4A4C0813403
:100A5000910544F48033910509F482C0C89709F0E8
:100A600038C189C08035910509F489C08835910560
:100A700009F496C08834910509F02BC1AEC08839BD
:100A8000910509F413C189399105ECF48837910572
:100A900009F4ABC0893791054CF48836910509F407
:100AA000A4C08037910509F014C19FC08838910512
:100AB00009F4FCC08039910509F49DC08038910586
:100AC00009F007C198C0803B910509F4C6C0813B7D
:100AD00091054CF4803A910509F49FC0883A91053C
:100AE00009F0F7C0BAC0803C910509F4E3C0883C26
:100AF000910509F4DFC0883B910509F0EAC0C2C046
:100B00008091CE018093BB00CFC09091F501809180
:100B1000F601981768F49091F501E92FF0E0EB5297
:100B2000FE4F80818093BB009F5F9093F501BCC016
:100B30008091CF01882309F44BC085ED8093BC00E0
:100B40008091BC0084FDFCCFC2C080E280933A0259
:100B500085ED8093BC008091BC0084FDFCCFB7C0C4
:100B600080E380933A0285ED8093BC008091BC00C5
:100B700084FDFCCFACC088E380933A029BC0809197
:100B8000F5019091BB00E82FF0E0EB52FE4F90830F
:100B90008F5F8093F5019091F5018091F60182C0FD
:100BA0008091F5019091BB00E82FF0E0EB52FE4FF1
:100BB00090838F5F8093F5018091CF01882341F06E
:100BC00085ED8093BC008091BC0084FDFCCF7FC08C
:100BD00081E08093D00184EA6EC085ED8093BC00F3
:100BE0008091BC0084FDFCCF72C083E08093CD0176
:100BF0001092390259C080913902803208F056C0F3
:100C0000809139029091BB00E82FF0E0E75EFD4F44
:100C100090838F5F8093390247C080913902803280
:100C200030F4E0913902F0E0E75EFD4F108285ED8F
:100C30008093BC008091BC0084FDFCCF1092CD015C
:100C400060913902E091D301F091D40189E192E001
:100C500070E00995109239022DC084E08093CD0197
:100C60001092170210921802E091D101F091D20176
:100C7000099580911802882329F481E08093180255
:100C80001092F70190911702E92FF0E0E950FE4F22
:100C900080818093BB009F5F909317029091170211
:100CA00080911802981710F485EC01C085E88093B4
:100CB000BC000FC085EC8093BC0009C010923A02C2
:100CC00085ED8093BC008091BC0084FDFCCF109228
:100CD000CD01FF91EF91BF91AF919F918F917F9146
:100CE0006F915F914F913F912F910F900FBE0F9099
:100CF0001F9018951092CD0181E08093CF01109242
:100D0000D00182E161E00E94CF0883E161E00E94AE
:100D1000CF08E9EBF0E080818E7F808380818D7F3A
:100D2000808388E48093B80085E48093BC000895B4
:100D3000CF93DF930E9445080E947F02C0E0D0E07D
:100D40000E944C022097E1F30E940000F9CFCF925D
:100D5000DF92EF92FF920F931F93CF93DF937C016B
:100D60006B018A01C0E0D0E00FC0D6016D916D012A
:100D7000D701ED91FC910190F081E02DC70109951B
:100D8000C80FD91F015010400115110571F7CE0190
:100D9000DF91CF911F910F91FF90EF90DF90CF9057
:100DA0000895CF93DF93EC016115710519F420E0EC
:100DB00030E00FC0DB010D900020E9F71197A61B72
:100DC000B70BE881F9810280F381E02DAD0109952F
:100DD0009C01C901DF91CF9108954F925F927F925C
:100DE0008F929F92AF92BF92CF92DF92EF92FF923B
:100DF0000F931F93DF93CF93CDB7DEB7A1970FB6B5
:100E0000F894DEBF0FBECDBF2C01742ECB01223073
:100E100008F42AE019A231E2C32ED12CCC0EDD1E3B
:100E2000822E9924AA24BB24672D752FA501940135
:100E30000E948A0C79018A01C801B701A5019401B9
:100E40000E94580C472D461B0894C108D1084A300F
:100E500014F4405D01C0495CF6014083E114F104E3
:100E60000105110521F07E2C5F2DC801DDCFC201E7
:100E7000B6010E94D106A1960FB6F894DEBF0FBE50
:100E8000CDBFCF91DF911F910F91FF90EF90DF9039
:100E9000CF90BF90AF909F908F907F905F904F903A
:100EA0000895CF92DF92EF92FF920F931F93CF930B
:100EB000DF93EC016A017B012115310541F4E881E2
:100EC000F9810190F081E02D642F09951FC02A302F
:100ED0003105D1F477FF17C0E881F9810190F081E5
:100EE000E02D6DE209958C0144275527BA014C1974
:100EF0005D096E097F09CE012AE00E94ED06980186
:100F0000280F391F04C02AE00E94ED069C01C90188
:100F1000DF91CF911F910F91FF90EF90DF90CF90D5
:100F20000895EF92FF920F931F937B019A01002780
:100F3000F7FC0095102FB801A7010E9451071F91DF
:100F40000F91FF90EF9008950E94D10608951F928F
:100F50000F920FB60F9211242F933F938F939F936D
:100F6000AF93BF9380913F0290914002A0914102C4
:100F7000B0914202309143020196A11DB11D232F71
:100F80002D5F2D3720F02D570196A11DB11D209307
:100F9000430280933F0290934002A0934102B0939A
:100FA000420280913B0290913C02A0913D02B0919F
:100FB0003E020196A11DB11D80933B0290933C021D
:100FC000A0933D02B0933E02BF91AF919F918F914C
:100FD0003F912F910F900FBE0F901F9018959FB7C4
:100FE000F89420913B0230913C0240913D02509197
:100FF0003E0286B5A89B06C08F3F21F02F5F3F4F72
:101000004F4F5F4F9FBF542F432F322F2227280F60
:10101000311D411D511D82E0220F331F441F551FFA
:101020008A95D1F7B901CA010895EF92FF920F9303
:101030001F93CF93DF937B018C010E94EF07EB019D
:101040000EC00E94EF076C1B7D0B685E7340C8F3F7
:101050000894E108F10801091109C851DC4FE114B5
:10106000F1040105110569F7DF91CF911F910F91EF
:10107000FF90EF900895019739F0880F991F880F1E
:10108000991F02970197F1F70895789484B58260CB
:1010900084BD84B5816084BD85B5826085BD85B51C
:1010A000816085BDEEE6F0E0808181608083E1E8CB
:1010B000F0E0108280818260808380818160808303
:1010C000E0E8F0E0808181608083E1EBF0E0808106
:1010D00084608083E0EBF0E0808181608083EAE7D8
:1010E000F0E0808184608083808182608083808161
:1010F000816080838081806880831092C100089520
:10110000982F8E3008F09E5097708091080182953C
:10111000880F880F807C892B80937C0080917A00D7
:10112000806480937A0080917A0086FDFCCF2091C4
:10113000780040917900942F80E030E0282B392B03
:10114000C9010895833071F0843028F48130A1F012
:10115000823021F514C08630B1F08730D1F0843070
:10116000E9F404C0809180008F7703C080918000F3
:101170008F7D80938000089584B58F7702C084B5F9
:101180008F7D84BD08958091B0008F778093B000EB
:1011900008958091B0008F7D8093B0000895FF92F4
:1011A0000F931F93F62E482F50E0CA01805D9E4F8B
:1011B000FC012491CA01845E9E4FFC011491485F9A
:1011C0005E4FFA0104910023C9F0222319F0822F07
:1011D0000E94A208E02FF0E0EE0FFF1FEC50FF4F3F
:1011E000A591B4919FB7F894FF2021F48C911095AC
:1011F000812302C08C91812B8C939FBF1F910F91F3
:10120000FF9008955058BB27AA270ED04DC13ED15C
:1012100030F043D120F031F49F3F11F41EF433C17C
:101220000EF4E095E7FB29C1E92F4FD180F3BA17FF
:10123000620773078407950718F071F49EF567C17C
:101240000EF4E0950B2EBA2FA02D0B01B9019001E1
:101250000C01CA01A0011124FF27591B99F0593F25
:1012600050F4503E68F11A16F040A22F232F342F6D
:101270004427585FF3CF469537952795A795F040BB
:101280005395C9F77EF41F16BA0B620B730B840BD0
:10129000BAF09150A1F0FF0FBB1F661F771F881F88
:1012A000C2F70EC0BA0F621F731F841F48F48795E0
:1012B00077956795B795F7959E3F08F0B3CF9395CF
:1012C000880F08F09927EE0F9795879508950CD011
:1012D000EBC0E3D040F0DAD030F021F45F3F19F0FA
:1012E000CCC0511115C1CFC0F0D098F39923C9F3E8
:1012F0005523B1F3951B550BBB27AA27621773071C
:10130000840738F09F5F5F4F220F331F441FAA1FCF
:10131000A9F333D00E2E3AF0E0E830D0915050408F
:10132000E695001CCAF729D0FE2F27D0660F771F3D
:10133000881FBB1F261737074807AB07B0E809F01F
:10134000BB0B802DBF01FF2793585F4F2AF09E3FB4
:10135000510568F092C0DCC05F3FECF3983EDCF3CF
:10136000869577956795B795F7959F5FC9F7880F2D
:10137000911D9695879597F90895E1E0660F771F7F
:10138000881FBB1F621773078407BA0720F0621B10
:10139000730B840BBA0BEE1F88F7E095089504D009
:1013A0006894B111B5C0089598D088F09F5790F017
:1013B000B92F9927B751A0F0D1F0660F771F881F7A
:1013C000991F1AF0BA95C9F712C0B13081F09FD0B9
:1013D000B1E008959CC0672F782F8827B85F39F057
:1013E000B93FCCF3869577956795B395D9F73EF4D9
:1013F00090958095709561957F4F8F4F9F4F089581
:10140000E89409C097FB3EF490958095709561959E
:101410007F4F8F4F9F4F9923A9F0F92F96E9BB2754
:101420009395F695879577956795B795F111F8CFD0
:10143000FAF4BB0F11F460FF1BC06F5F7F4F8F4F3B
:101440009F4F16C0882311F096E911C0772321F031
:101450009EE8872F762F05C0662371F096E8862FC9
:1014600070E060E02AF09A95660F771F881FDAF720
:10147000880F9695879597F9089597F99F6780E863
:1014800070E060E008959FEF80EC089500240A94D6
:101490001616170618060906089500240A9412164F
:1014A0001306140605060895092E0394000C11F482
:1014B000882352F0BB0F40F4BF2B11F460FF04C02F
:1014C0006F5F7F4F8F4F9F4F089557FD9058440F88
:1014D000551F59F05F3F71F04795880F97FB991F93
:1014E00061F09F3F79F08795089512161306140650
:1014F000551FF2CF4695F1DF08C0161617061806DD
:10150000991FF1CF86957105610508940895E894B7
:10151000BB2766277727CB0197F908950BD0C4CF57
:10152000B5DF28F0BADF18F0952309F0A6CFABCFCE
:101530001124EECFCADFA0F3959FD1F3950F50E0B1
:10154000551F629FF001729FBB27F00DB11D639F75
:10155000AA27F00DB11DAA1F649F6627B00DA11D1B
:10156000661F829F2227B00DA11D621F739FB00DC1
:10157000A11D621F839FA00D611D221F749F332731
:10158000A00D611D231F849F600D211D822F762FCA
:101590006A2F11249F5750408AF0E1F088234AF0C7
:1015A000EE0FFF1FBB1F661F771F881F9150504013
:1015B000A9F79E3F510570F060CFAACF5F3FECF3D3
:1015C000983EDCF3869577956795B795F795E795FF
:1015D0009F5FC1F7FE2B880F911D9695879597F910
:1015E0000895FA01EE0FFF1F30962105310599F19C
:1015F0006115710561F48038BFE39B0749F1689478
:101600009038810561F08038BFEF9B0741F0992346
:1016100042F5FF3FE1053105210511F1E8940894F9
:10162000E795D901AA2329F4AB2FBE2FF85FD0F399
:1016300010C0FF5F70F4A695E0F7F73950F019F08D
:10164000FF3A38F49F779F930CD00F9007FC905887
:1016500008953EF018CF60E070E080E89FE30895C1
:101660004FE79F775F934F933F932F939ED02F9198
:101670003F914F915F9152DF05C019F40EF0FDCEFE
:1016800046CF01CF2ADFC8F39638C0F707F80F928C
:10169000E8942BE33AEA48EB5FE74EDF0F920F92B4
:1016A0000F924DB75EB70F92C0D0E8E6F0E016D0CB
:1016B0004F915F91EF91FF91E595EE1FFF1F49F06C
:1016C000FE57E0684427EE0F441FFA95E1F7419575
:1016D000550B32D00F9007FE26C00895DF93CF93AD
:1016E0001F930F93FF92EF92DF927B018C0168941E
:1016F00005C0DA2EEF011EDFFE01E894A5912591C9
:10170000359145915591AEF3EF018EDDFE019701C4
:10171000A801DA9479F7DF90EF90FF900F911F9175
:10172000CF91DF9108959B01AC0160E070E080E80B
:101730009FE3CDCDA2CEACC0D0DEE8F39923D9F3A0
:10174000940F511DBBF39150504094F059F08823F1
:1017500032F0660F771F881F91505040C1F79E3FAF
:10176000510544F7880F911D9695879597F908952F
:101770005F3FACF0983E9CF0BB27869577956795C8
:10178000B79508F4B1609395C1F7BB0F58F711F402
:1017900060FFE8CF6F5F7F4F8F4F9F4FE3CFB8CE93
:1017A0000EF076C070CE689468CE97DEC8F39923A9
:1017B000D1F3C6F3DF93CF931F930F93FF92C92FFB
:1017C000DD2788232AF02197660F771F881FDAF715
:1017D00020E030E040E85FEB9FE3883920F0803E76
:1017E00030F021968F770FDDE0E9F0E003C00BDDEC
:1017F000EDEBF0E073DF8B01BE01EC01FB2E6F57C8
:1018000071097595771F880B990BFCDD28E132E78C
:1018100041E35FE38FDEAF2D9801AE01FF900F91A2
:101820001F91CF91DF9100DD3FCEFA01DC01AA0FBD
:10183000BB1F9B01AC01BF5728F422273327442745
:1018400050781FC0B75188F4AB2F002446953795C8
:101850002795011CA395D2F3002069F0220F331FB6
:10186000441FB395DAF30DD0CDCC61307105A0E8FB
:101870008A07B94630F49B01AC0166277727882791
:101880009078309621F020833183428353830895EA
:101890009F3F49F0915028F4869577956795B795C5
:1018A0009F5F80389F4F880F9695879597F9089589
:1018B000629FD001739FF001829FE00DF11D649F34
:1018C000E00DF11D929FF00D839FF00D749FF00DC0
:1018D000659FF00D9927729FB00DE11DF91F639F61
:1018E000B00DE11DF91FBD01CF011124089597FB33
:1018F000092E07260AD077FD04D02ED006D000206E
:101900001AF4709561957F4F0895F6F7909581953B
:101910009F4F0895A1E21A2EAA1BBB1BFD010DC00B
:10192000AA1FBB1FEE1FFF1FA217B307E407F5078F
:1019300020F0A21BB30BE40BF50B661F771F881F6B
:10194000991F1A9469F760957095809590959B0101
:10195000AC01BD01CF010895AA1BBB1B51E107C01B
:10196000AA1FBB1FA617B70710F0A61BB70B881F2F
:10197000991F5A95A9F780959095BC01CD010895BE
:10198000EE0FFF1F0590F491E02D0994F894FFCF1E
:101990004D007C004200530001000000004A01A7F6
:1019A000060000400014005400040A0A040000006D
:1019B00000001F1F1F1F1F1F00000000002704F64C
:0A19C00003AF03B803CD03DE0300FC
:00000001FF
